{
  "contractName": "EIP712",
  "abi": [
    {
      "inputs": [],
      "name": "chainId",
      "outputs": [
        {
          "internalType": "uint256",
          "name": "",
          "type": "uint256"
        }
      ],
      "stateMutability": "view",
      "type": "function",
      "constant": true
    },
    {
      "inputs": [],
      "name": "name",
      "outputs": [
        {
          "internalType": "string",
          "name": "",
          "type": "string"
        }
      ],
      "stateMutability": "view",
      "type": "function",
      "constant": true
    },
    {
      "inputs": [],
      "name": "version",
      "outputs": [
        {
          "internalType": "string",
          "name": "",
          "type": "string"
        }
      ],
      "stateMutability": "view",
      "type": "function",
      "constant": true
    },
    {
      "inputs": [
        {
          "internalType": "address",
          "name": "signer",
          "type": "address"
        },
        {
          "internalType": "bytes32",
          "name": "r",
          "type": "bytes32"
        },
        {
          "internalType": "bytes32",
          "name": "s",
          "type": "bytes32"
        },
        {
          "internalType": "uint8",
          "name": "v",
          "type": "uint8"
        }
      ],
      "name": "verify",
      "outputs": [
        {
          "internalType": "bool",
          "name": "",
          "type": "bool"
        }
      ],
      "stateMutability": "view",
      "type": "function",
      "constant": true
    }
  ],
  "bytecode": "0x60806040526040518060400160405280600681526020017f45495037313200000000000000000000000000000000000000000000000000008152506000908051906020019062000051929190620001ee565b506040518060400160405280600381526020017f322e320000000000000000000000000000000000000000000000000000000000815250600190805190602001906200009f929190620001ee565b506040518060800160405280605f815260200162000b20605f9139604051602001620000cc91906200034a565b604051602081830303815290604052805190602001207f421979463954f2ac93264f1ce0c11a780b4a7686122abe11bac8c8244f44a3de7fe0a0f89a8921c4ccd96358aed67635ceda9bf612b30503ebc6b32eb27ee4232e610539737bbd77cd941426d77ddaa623bc9b1f6f0a07db427ff2d857f4a3edcb9b78b4d503bfe733db1e3f6cdc2b7971ee739626c97e86a55860001b6040516020016200017796959493929190620003a0565b604051602081830303815290604052805190602001207ff15b2f317e2e7b1fa9c22617d4b7bea6990f0236c85fc8c343aae0e297c3a7d2604051602001620001c192919062000363565b60405160208183030381529060405280519060200120600255348015620001e757600080fd5b5062000539565b828054620001fc90620004a1565b90600052602060002090601f0160209004810192826200022057600085556200026c565b82601f106200023b57805160ff19168380011785556200026c565b828001600101855582156200026c579182015b828111156200026b5782518255916020019190600101906200024e565b5b5090506200027b91906200027f565b5090565b5b808211156200029a57600081600090555060010162000280565b5090565b620002a98162000423565b82525050565b620002ba8162000437565b82525050565b620002d5620002cf8262000437565b620004d7565b82525050565b6000620002e8826200040d565b620002f4818562000418565b9350620003068185602086016200046b565b80840191505092915050565b600062000321601a8362000418565b91506200032e8262000510565b601a82019050919050565b620003448162000461565b82525050565b6000620003588284620002db565b915081905092915050565b6000620003708262000312565b91506200037e8285620002c0565b602082019150620003908284620002c0565b6020820191508190509392505050565b600060c082019050620003b76000830189620002af565b620003c66020830188620002af565b620003d56040830187620002af565b620003e4606083018662000339565b620003f360808301856200029e565b6200040260a0830184620002af565b979650505050505050565b600081519050919050565b600081905092915050565b6000620004308262000441565b9050919050565b6000819050919050565b600073ffffffffffffffffffffffffffffffffffffffff82169050919050565b6000819050919050565b60005b838110156200048b5780820151818401526020810190506200046e565b838111156200049b576000848401525b50505050565b60006002820490506001821680620004ba57607f821691505b60208210811415620004d157620004d0620004e1565b5b50919050565b6000819050919050565b7f4e487b7100000000000000000000000000000000000000000000000000000000600052602260045260246000fd5b7f19457468657265756d205369676e6564204d6573736167653a0a000000000000600082015250565b6105d780620005496000396000f3fe608060405234801561001057600080fd5b506004361061004c5760003560e01c806306fdde031461005157806354fd4d501461006f5780639a8a05921461008d5780639ce1e9d3146100ab575b600080fd5b6100596100db565b60405161006691906103ff565b60405180910390f35b610077610169565b60405161008491906103ff565b60405180910390f35b6100956101f7565b6040516100a29190610421565b60405180910390f35b6100c560048036038101906100c091906102c7565b6101fd565b6040516100d2919061039f565b60405180910390f35b600080546100e8906104ea565b80601f0160208091040260200160405190810160405280929190818152602001828054610114906104ea565b80156101615780601f1061013657610100808354040283529160200191610161565b820191906000526020600020905b81548152906001019060200180831161014457829003601f168201915b505050505081565b60018054610176906104ea565b80601f01602080910402602001604051908101604052809291908181526020018280546101a2906104ea565b80156101ef5780601f106101c4576101008083540402835291602001916101ef565b820191906000526020600020905b8154815290600101906020018083116101d257829003601f168201915b505050505081565b61053981565b600060016002548386866040516000815260200160405260405161022494939291906103ba565b6020604051602081039080840390855afa158015610246573d6000803e3d6000fd5b5050506020604051035173ffffffffffffffffffffffffffffffffffffffff168573ffffffffffffffffffffffffffffffffffffffff16149050949350505050565b6000813590506102978161055c565b92915050565b6000813590506102ac81610573565b92915050565b6000813590506102c18161058a565b92915050565b600080600080608085870312156102dd57600080fd5b60006102eb87828801610288565b94505060206102fc8782880161029d565b935050604061030d8782880161029d565b925050606061031e878288016102b2565b91505092959194509250565b6103338161046a565b82525050565b61034281610476565b82525050565b60006103538261043c565b61035d8185610447565b935061036d8185602086016104b7565b6103768161054b565b840191505092915050565b61038a816104a0565b82525050565b610399816104aa565b82525050565b60006020820190506103b4600083018461032a565b92915050565b60006080820190506103cf6000830187610339565b6103dc6020830186610390565b6103e96040830185610339565b6103f66060830184610339565b95945050505050565b600060208201905081810360008301526104198184610348565b905092915050565b60006020820190506104366000830184610381565b92915050565b600081519050919050565b600082825260208201905092915050565b600061046382610480565b9050919050565b60008115159050919050565b6000819050919050565b600073ffffffffffffffffffffffffffffffffffffffff82169050919050565b6000819050919050565b600060ff82169050919050565b60005b838110156104d55780820151818401526020810190506104ba565b838111156104e4576000848401525b50505050565b6000600282049050600182168061050257607f821691505b602082108114156105165761051561051c565b5b50919050565b7f4e487b7100000000000000000000000000000000000000000000000000000000600052602260045260246000fd5b6000601f19601f8301169050919050565b61056581610458565b811461057057600080fd5b50565b61057c81610476565b811461058757600080fd5b50565b610593816104aa565b811461059e57600080fd5b5056fea2646970667358221220e5da2e9ad741f70b9c4317d3908f1bfc85a750f5ba3317da063c03a626fcde0b64736f6c63430008020033454950373132446f6d61696e28737472696e67206e616d652c737472696e672076657273696f6e2c75696e7432353620636861696e49642c6164647265737320766572696679696e67436f6e74726163742c627974657333322073616c7429",
  "immutableReferences": {},
  "source": "pragma solidity ^0.8.2;\r\n\r\ncontract EIP712 {\r\n    string public name = \"EIP712\";\r\n    string public version = \"2.2\";\r\n    uint256 public constant chainId = 1337;\r\n    address constant verifyingContract = 0x7bBD77cd941426D77ddaA623Bc9b1F6f0a07db42;\r\n    bytes32 constant salt = 0xf2d857f4a3edcb9b78b4d503bfe733db1e3f6cdc2b7971ee739626c97e86a558; \r\n\r\n    string constant message = \"Message(string message)\";\r\n    string constant EIP712_DOMAIN = \"EIP712Domain(string name,string version,uint256 chainId,address verifyingContract,bytes32 salt)\";\r\n\r\n    bytes32 private constant DOMAIN_SEPARATOR = keccak256(abi.encode(\r\n       keccak256(abi.encodePacked(EIP712_DOMAIN)),\r\n       keccak256(\"EIP712\"),\r\n       keccak256(\"2.2\"),\r\n       chainId,\r\n       verifyingContract,\r\n       salt\r\n    ));\r\n\r\n    bytes32 messageHash = keccak256(abi.encodePacked(\r\n        \"\\x19Ethereum Signed Message:\\n\",\r\n        DOMAIN_SEPARATOR,\r\n        keccak256(\"I acknowledge blah blah blah\")\r\n    ));\r\n\r\n    function verify(address signer,bytes32 r,bytes32 s,uint8 v) external view returns(bool){\r\n        return signer == ecrecover(messageHash, v, r, s);\r\n    }\r\n}",
  "sourcePath": "D:\\blockchain\\eip712\\contracts\\EIP712.sol",
  "compiler": {
    "name": "solc",
    "version": "0.8.2+commit.661d1103.Emscripten.clang"
  },
  "schemaVersion": "3.4.4",
  "updatedAt": "2022-01-03T04:28:45.847Z",
  "networkType": "ethereum",
  "devdoc": {
    "kind": "dev",
    "methods": {},
    "version": 1
  },
  "userdoc": {
    "kind": "user",
    "methods": {},
    "version": 1
  }
}