{
  "contractName": "EIP712",
  "abi": [
    {
      "inputs": [],
      "name": "chainId",
      "outputs": [
        {
          "internalType": "uint256",
          "name": "",
          "type": "uint256"
        }
      ],
      "stateMutability": "view",
      "type": "function",
      "constant": true
    },
    {
      "inputs": [],
      "name": "messageHash",
      "outputs": [
        {
          "internalType": "bytes32",
          "name": "",
          "type": "bytes32"
        }
      ],
      "stateMutability": "view",
      "type": "function",
      "constant": true
    },
    {
      "inputs": [],
      "name": "name",
      "outputs": [
        {
          "internalType": "string",
          "name": "",
          "type": "string"
        }
      ],
      "stateMutability": "view",
      "type": "function",
      "constant": true
    },
    {
      "inputs": [],
      "name": "version",
      "outputs": [
        {
          "internalType": "string",
          "name": "",
          "type": "string"
        }
      ],
      "stateMutability": "view",
      "type": "function",
      "constant": true
    },
    {
      "inputs": [
        {
          "internalType": "address",
          "name": "signer",
          "type": "address"
        },
        {
          "internalType": "bytes32",
          "name": "r",
          "type": "bytes32"
        },
        {
          "internalType": "bytes32",
          "name": "s",
          "type": "bytes32"
        },
        {
          "internalType": "uint8",
          "name": "v",
          "type": "uint8"
        }
      ],
      "name": "verify",
      "outputs": [
        {
          "internalType": "bool",
          "name": "",
          "type": "bool"
        }
      ],
      "stateMutability": "view",
      "type": "function",
      "constant": true
    }
  ],
  "bytecode": "0x60806040526040518060400160405280600681526020017f4549503731320000000000000000000000000000000000000000000000000000815250600090805190602001906200005192919062000275565b506040518060400160405280600381526020017f322e320000000000000000000000000000000000000000000000000000000000815250600190805190602001906200009f92919062000275565b506040518060800160405280605f815260200162000c1e605f9139604051602001620000cc9190620003d1565b604051602081830303815290604052805190602001207f421979463954f2ac93264f1ce0c11a780b4a7686122abe11bac8c8244f44a3de7fe0a0f89a8921c4ccd96358aed67635ceda9bf612b30503ebc6b32eb27ee4232e610539737bbd77cd941426d77ddaa623bc9b1f6f0a07db427ff2d857f4a3edcb9b78b4d503bfe733db1e3f6cdc2b7971ee739626c97e86a55860001b604051602001620001779695949392919062000454565b604051602081830303815290604052805190602001206040518060400160405280601781526020017f4d65737361676528737472696e67206d65737361676529000000000000000000815250604051602001620001d59190620003d1565b604051602081830303815290604052805190602001207ff15b2f317e2e7b1fa9c22617d4b7bea6990f0236c85fc8c343aae0e297c3a7d26040516020016200021f92919062000427565b6040516020818303038152906040528051906020012060405160200162000248929190620003ea565b604051602081830303815290604052805190602001206002553480156200026e57600080fd5b50620005ed565b828054620002839062000555565b90600052602060002090601f016020900481019282620002a75760008555620002f3565b82601f10620002c257805160ff1916838001178555620002f3565b82800160010185558215620002f3579182015b82811115620002f2578251825591602001919060010190620002d5565b5b50905062000302919062000306565b5090565b5b808211156200032157600081600090555060010162000307565b5090565b6200033081620004d7565b82525050565b6200034181620004eb565b82525050565b6200035c6200035682620004eb565b6200058b565b82525050565b60006200036f82620004c1565b6200037b8185620004cc565b93506200038d8185602086016200051f565b80840191505092915050565b6000620003a8601a83620004cc565b9150620003b582620005c4565b601a82019050919050565b620003cb8162000515565b82525050565b6000620003df828462000362565b915081905092915050565b6000620003f78262000399565b915062000405828562000347565b60208201915062000417828462000347565b6020820191508190509392505050565b60006040820190506200043e600083018562000336565b6200044d602083018462000336565b9392505050565b600060c0820190506200046b600083018962000336565b6200047a602083018862000336565b62000489604083018762000336565b620004986060830186620003c0565b620004a7608083018562000325565b620004b660a083018462000336565b979650505050505050565b600081519050919050565b600081905092915050565b6000620004e482620004f5565b9050919050565b6000819050919050565b600073ffffffffffffffffffffffffffffffffffffffff82169050919050565b6000819050919050565b60005b838110156200053f57808201518184015260208101905062000522565b838111156200054f576000848401525b50505050565b600060028204905060018216806200056e57607f821691505b6020821081141562000585576200058462000595565b5b50919050565b6000819050919050565b7f4e487b7100000000000000000000000000000000000000000000000000000000600052602260045260246000fd5b7f19457468657265756d205369676e6564204d6573736167653a0a000000000000600082015250565b61062180620005fd6000396000f3fe608060405234801561001057600080fd5b50600436106100575760003560e01c806306fdde031461005c578063304440171461007a57806354fd4d50146100985780639a8a0592146100b65780639ce1e9d3146100d4575b600080fd5b610064610104565b6040516100719190610449565b60405180910390f35b610082610192565b60405161008f91906103e9565b60405180910390f35b6100a0610198565b6040516100ad9190610449565b60405180910390f35b6100be610226565b6040516100cb919061046b565b60405180910390f35b6100ee60048036038101906100e991906102f6565b61022c565b6040516100fb91906103ce565b60405180910390f35b6000805461011190610534565b80601f016020809104026020016040519081016040528092919081815260200182805461013d90610534565b801561018a5780601f1061015f5761010080835404028352916020019161018a565b820191906000526020600020905b81548152906001019060200180831161016d57829003601f168201915b505050505081565b60025481565b600180546101a590610534565b80601f01602080910402602001604051908101604052809291908181526020018280546101d190610534565b801561021e5780601f106101f35761010080835404028352916020019161021e565b820191906000526020600020905b81548152906001019060200180831161020157829003601f168201915b505050505081565b61053981565b60006001600254838686604051600081526020016040526040516102539493929190610404565b6020604051602081039080840390855afa158015610275573d6000803e3d6000fd5b5050506020604051035173ffffffffffffffffffffffffffffffffffffffff168573ffffffffffffffffffffffffffffffffffffffff16149050949350505050565b6000813590506102c6816105a6565b92915050565b6000813590506102db816105bd565b92915050565b6000813590506102f0816105d4565b92915050565b6000806000806080858703121561030c57600080fd5b600061031a878288016102b7565b945050602061032b878288016102cc565b935050604061033c878288016102cc565b925050606061034d878288016102e1565b91505092959194509250565b610362816104b4565b82525050565b610371816104c0565b82525050565b600061038282610486565b61038c8185610491565b935061039c818560208601610501565b6103a581610595565b840191505092915050565b6103b9816104ea565b82525050565b6103c8816104f4565b82525050565b60006020820190506103e36000830184610359565b92915050565b60006020820190506103fe6000830184610368565b92915050565b60006080820190506104196000830187610368565b61042660208301866103bf565b6104336040830185610368565b6104406060830184610368565b95945050505050565b600060208201905081810360008301526104638184610377565b905092915050565b600060208201905061048060008301846103b0565b92915050565b600081519050919050565b600082825260208201905092915050565b60006104ad826104ca565b9050919050565b60008115159050919050565b6000819050919050565b600073ffffffffffffffffffffffffffffffffffffffff82169050919050565b6000819050919050565b600060ff82169050919050565b60005b8381101561051f578082015181840152602081019050610504565b8381111561052e576000848401525b50505050565b6000600282049050600182168061054c57607f821691505b602082108114156105605761055f610566565b5b50919050565b7f4e487b7100000000000000000000000000000000000000000000000000000000600052602260045260246000fd5b6000601f19601f8301169050919050565b6105af816104a2565b81146105ba57600080fd5b50565b6105c6816104c0565b81146105d157600080fd5b50565b6105dd816104f4565b81146105e857600080fd5b5056fea2646970667358221220320aad9ec3874af0a56c8f163272fab90070dafecb6d3caff7832b1cc603039c64736f6c63430008020033454950373132446f6d61696e28737472696e67206e616d652c737472696e672076657273696f6e2c75696e7432353620636861696e49642c6164647265737320766572696679696e67436f6e74726163742c627974657333322073616c7429",
  "immutableReferences": {},
  "source": "pragma solidity ^0.8.2;\r\n\r\ncontract EIP712 {\r\n    string public name = \"EIP712\";\r\n    string public version = \"2.2\";\r\n    uint256 public constant chainId = 1337;\r\n    address constant verifyingContract = 0x7bBD77cd941426D77ddaA623Bc9b1F6f0a07db42;\r\n    bytes32 constant salt = 0xf2d857f4a3edcb9b78b4d503bfe733db1e3f6cdc2b7971ee739626c97e86a558; \r\n\r\n    string constant message = \"Message(string message)\";\r\n    string constant EIP712_DOMAIN = \"EIP712Domain(string name,string version,uint256 chainId,address verifyingContract,bytes32 salt)\";\r\n\r\n    bytes32 private constant DOMAIN_SEPARATOR = keccak256(abi.encode(\r\n       keccak256(abi.encodePacked(EIP712_DOMAIN)),\r\n       keccak256(\"EIP712\"),\r\n       keccak256(\"2.2\"),\r\n       chainId,\r\n       verifyingContract,\r\n       salt\r\n    ));\r\n\r\n    bytes32 public messageHash = keccak256(abi.encodePacked(\r\n        // \"\\\\x19\\\\x01\",\r\n        \"\\x19Ethereum Signed Message:\\n\",\r\n        DOMAIN_SEPARATOR,\r\n        keccak256(abi.encode(   \r\n            keccak256(abi.encodePacked(message)),\r\n            keccak256(\"I acknowledge blah blah blah\")\r\n        ))\r\n    ));\r\n\r\n    function verify(address signer,bytes32 r,bytes32 s,uint8 v) external view returns(bool){\r\n        return signer == ecrecover(messageHash, v, r, s);\r\n    }\r\n}",
  "sourcePath": "D:\\blockchain\\eip712\\contracts\\EIP712.sol",
  "compiler": {
    "name": "solc",
    "version": "0.8.2+commit.661d1103.Emscripten.clang"
  },
  "schemaVersion": "3.4.4",
  "updatedAt": "2022-01-03T05:49:11.218Z",
  "networkType": "ethereum",
  "devdoc": {
    "kind": "dev",
    "methods": {},
    "version": 1
  },
  "userdoc": {
    "kind": "user",
    "methods": {},
    "version": 1
  }
}